:020000040800F2
:100000000000012019120008790C0008810C00087A
:10001000830C0008850C0008870C00080000000015
:10002000000000000000000000000000890C000833
:100030008B0C0008000000008D0C00088F0C0008DD
:1000400069120008691200086912000869120008A4
:100050006912000869120008691200086912000894
:100060006912000869120008691200086912000884
:100070006912000869120008691200086912000874
:1000800069120008691200086912000800000000E7
:1000900000000000000000000000000069120008DD
:1000A00069120008950C0008A10C000869120008EC
:1000B000AD0C0008B90C00086912000869120008AC
:1000C000691200086912000869120008C50C0008CE
:1000D00069120008D10C0008691200080000000035
:1000E0006912000869120008691200080000000087
:1000F000000000000000000000000000691200087D
:1001000000000000DD0C00086912000869120008F8
:1001100000000000000000000000000000000000DF
:10012000691200086912000869120008E90C000849
:10013000691200080000000000000000000000003C
:10014000000000000000000000000000F50C0008A6
:1001500069120008010D0008691200080D0D000861
:100160006912000869120008000000000000000089
:10017000000000000000000000000000000000007F
:1001800000000000691200080000000000000000EC
:0401900069120008E8
:1001940010B5054C237833B9044B13B10448AFF3BD
:1001A40000800123237010BDFC000020000000002B
:1001B4009C6D000808B5034B1BB103490348AFF31A
:1001C400008008BD00000000000100209C6D0008B4
:1001D400034613F8012B002AFBD1181A0138704783
:1001E40053B94AB9002908BF00281CBF4FF0FF319A
:1001F4004FF0FF3000F06AB9ADF1080C6DE904CEA0
:1002040000F006F8DDF804E0DDE9022304B07047ED
:100214002DE9F047089D0C46002B4ED194468C45A1
:100224008646B2FA82F262D94AB1C2F12003914001
:1002340020FA03F30CFA02FC194300FA02FE4FEA17
:100244001C471FFA8CF6B1FBF7F44FEA1E4307FB79
:10025400141143EA014304FB06F199420AD91CEB49
:10026400030304F1FF3080F01281994240F20F81C0
:10027400023C6344591A1FFA8EF3B1FBF7F007FBF3
:10028400101143EA014300FB06F69E420AD91CEB17
:10029400030300F1FF3180F0FC809E4240F2F980BC
:1002A400634402389B1B40EA044000211DB1D34043
:1002B4000022C5E90032BDE8F0878B4205D90DB1B3
:1002C400C5E9000100210846F5E7B3FA83F10029E6
:1002D40046D1A34202D39042C0F0F080861A64EB68
:1002E40003030120002DE6D0C5E90063E3E7002AFB
:1002F40040F09080A1EB0C044FEA1C481FFA8CF7E5
:100304000121B4FBF8F64FEA1E4308FB164443EA06
:10031400044307FB06F0984208D91CEB030306F1DB
:10032400FF3402D2984200F2CD8026461C1A1FFAEE
:100334008EF3B4FBF8F008FB104443EA044300FBDB
:1003440007F79F4208D91CEB030300F1FF3402D2E4
:100354009F4200F2B0802046DB1B40EA0640A5E73E
:10036400C1F120068B4022FA06F71F4320FA06FC4F
:1003740004FA01F343EA0C03F44000FA01F8380CE0
:100384004FEA1349B4FBF0FE1FFA87FC00FB1E443E
:1003940049EA04440EFB0CF9A14502FA01F20AD918
:1003A4003C190EF1FF3A80F08480A14540F281802F
:1003B400AEF1020E3C44A4EB09041FFA83F9B4FB2A
:1003C400F0F300FB134449EA044403FB0CFCA4458A
:1003D40007D93C1903F1FF3067D2A44565D9023B24
:1003E4003C4443EA0E40A0FB0293A4EB0C049C4261
:1003F400CE469C4651D34ED055B1B8EB0E0364EBB8
:100404000C0404FA06F6CB401E43CC40C5E9006454
:10041400002150E7C2F1200320FA03F10CFA02FC98
:1004240024FA03F394400C434FEA1C4800FA02FEFA
:100434001FFA8CF7B3FBF8F008FB1031230C43EAE6
:10044400014300FB07F1994208D91CEB030300F1B7
:10045400FF362CD299422AD9023863445B1AA4B2DB
:10046400B3FBF8F108FB113344EA034401FB07F33F
:10047400A34208D91CEB040401F1FF3613D2A342B2
:1004840011D902396444E41A41EA004139E70446C7
:10049400F0E6084606E7C845AED2B9EB020E63EBB8
:1004A400070C0138A8E73146EDE7034699E73046E3
:1004B400D4E7D6467FE7634402384DE70646234631
:1004C40008460FE7023E634430E700BF704700BFB1
:1004D4001FB510220021684606F032FC1348144A66
:1004E4004FF48033C0E9002301240023114A8360C0
:1004F4000361037680F82030C3628262C360C46102
:1005040080F83030446100F013FF08B100F0F6F9D0
:100514000F23CDE90034054800236946029300F017
:10052400ADFF08B100F0EAF904B010BD18010020D5
:10053400002001400100000F30B5044689B01422A8
:10054400002103A806F0FCFB22681A4B9A422FD123
:1005540003F58C33002400945A6C174842F48072DB
:100564005A645A6C02F480720092009A01941A6BD5
:1005740042F004021A631A6B02F004020192019A17
:1005840002941A6B42F002021A631B6B03F002031B
:100594000293029B0325202303A9CDE9033501F02F
:1005A40041FA0648059403A9CDE9035501F03AFA46
:1005B40009B030BD002001400008024000040240A0
:1005C40013B50F4B002401941A6B42F480021A6392
:1005D4001B6B03F480032246214601933B20019BBD
:1005E40000F0EEFF3B2001F01DF822462146452095
:1005F40000F0E6FF452002B0BDE8104001F012B85B
:10060400003802402DE9F04314228BB00DEB0200B8
:10061400002106F095FB00244C4B00941A6BDFF884
:1006240038914B4E4B4D42F004021A631A6B02F0A0
:1006340004020092009A01941A6B42F080021A6339
:100644001A6B02F080020192019A02941A6B42F032
:1006540001021A631A6B02F001020292029A0394D5
:100664001A6B42F002021A631A6B02F0020203923E
:10067400039A04941A6B42F008021A631B6B03F08A
:1006840008030493224648461F21049B01F096FA6E
:10069400224630461F2101F091FA224628464FF4A3
:1006A400E04101F08BFA01274FF01F0805A94846E5
:1006B400CDE90587CDE9074401F0B4F905A9304631
:1006C400CDE90587CDE9074401F0ACF90422032301
:1006D40005A92846CDE90523079401F0A3F94FF4B1
:1006E400E04305A92846CDE905374FF40048CDE994
:1006F400074401F097F94FF4881305A92846CDE97A
:1007040005830227079401F08DF94FF4807305A93E
:100714003046CDE90537CDE90744099401F082F963
:1007240005A93046CDE90584079401F07BF920231F
:10073400CDE9053705A90F232846CDE907440993D8
:1007440001F070F90BB0BDE8F08300BF003802403F
:1007540000000240000402400008024008B50B48B3
:100764000B4A0C4BC0E9002300234FF48042C0E93C
:100774000233C0E90423C0E90633036201F024FA1A
:1007840018B1BDE8084000F0B9B808BD6001002008
:1007940000540040A086010030B5044689B01422FC
:1007A400002103A806F0CCFA2268134B9A4221D107
:1007B400124C134800250195236B43F00203236375
:1007C400236B03F002030193019BC0221223CDE9A2
:1007D400032303210423CDE9061303A901F022F91D
:1007E4000295236C43F400132364236C03F4001375
:1007F4000293029B09B030BD00540040003802400F
:100804000004024010B5002494B02146142203A829
:100814000D9406F095FA254B01941A6C42F080521F
:100824001A641B6C224A03F080530193019B0294C7
:10083400136823F4404343F400431360136803F440
:10084400404302934FF48032029B0723CDE90832E0
:100854000122CDE90A2210220C9202244FF48002D4
:10086400CDE90E420821A822CDE9101208A80422DD
:10087400CDE9122301F082FF08B172B6FEE70F231F
:10088400CDE903344FF48053CDE906300590214679
:1008940003A802F099F9024608B172B6FEE70146D0
:1008A40002F01AF902F064F914B010BD00380240E5
:1008B4000070004008B500F0FBFCFFF7A3FFFFF752
:1008C400A1FEFFF77DFEFFF749FF00F019F800F0E5
:1008D40089F800F053F900F0F3FB00F00DFC05F08B
:1008E40095F806F02FF8FFF7F3FD00F0FBFA00F09F
:1008F40047FB00F07DFB00F0AFFBFEE772B6FEE7BE
:1009040010B58EB000241422002101A806F018FAB4
:100914002146202206A8009406F012FA1D481E4B18
:100924008461C0E900347F21FF23C0E90213C0E9D8
:10093400044402F004FB08B1FFF7E0FF1548ADF8EA
:100944000440012201A9CDE904448DF8064002F0D7
:1009540049FB08B1FFF7D2FF104B0E480093012268
:10096400694602F099FB08B1FFF7C8FF0023012292
:10097400CDE90623CDE90833CDE90A330C930548C4
:10098400802306A90D9302F0CEFB08B1FFF7B6FF52
:100994000EB010BDB4010020002800400101010088
:1009A40010B5044686B01422002101A806F0C8F947
:1009B40022680A4B9A420ED10223019301A84FF4F4
:1009C4008073049302F0CEF908B1FFF797FF044B4C
:1009D4000122C3F83C2E06B010BD00BF0028004021
:1009E4000000474210B50B4C0B4A00232046C4E9D3
:1009F4000023C4E90233C4E90433A36102F02CFFE9
:100A040030B920464FF40061BDE8104002F052BFF7
:100A140010BD00BF94020020002C01402DE9F043DA
:100A2400054689B01422002103A806F089F92A6832
:100A34004B4B9A4240F0918003F586330026009692
:100A44005A6C484842F400625A645A6C02F40062D8
:100A54000092009A01961A6B42F004021A631A6B10
:100A640002F004020192019A02961A6B42F0080203
:100A74001A631B6B03F008030C2402934FF0020962
:100A840003270DEB0401029B4FF4F853CDE903391E
:100A9400CDE906744FF0040800F0C4FF0DEB040127
:100AA40031480794CDE90389304CCDE9056700F05E
:100AB400B9FFDFF8C4E0A7624FF00063C4E900E3C4
:100AC4004FF480694FF48053C4E904934FF4804297
:100AD4002023C4E906234FF400014FF400132046F9
:100AE400C4E90266C4E90868C4E90B1300F0D2FD46
:100AF40008B1FFF703FF1E4A2C64A5631D4C4FF099
:100B04000063C4E90023402100234FF480604FF4C4
:100B14008052C4E90213236204270323C4E90402B4
:100B2400C4E909734FF4804620224FF4000C4FF4BB
:100B340000132046C4E90662C4E90BC300F0AAFD11
:100B440008B1FFF7DBFE00223120EC631146A563F8
:100B540000F036FD312000F065FD09B0BDE8F083FA
:100B6400002C014000080240000C02403402002026
:100B7400A0640240D4010020586402400E480F4A89
:100B840008B54FF48273C0E9002300234FF40072C8
:100B9400C0E90233C0E90433C0E90623C0E90833DD
:100BA40083620A23C36203F083F818B1BDE80840E6
:100BB400FFF7A4BE08BD00BF1803002000300140A9
:100BC40010B5044688B01422002103A806F0B8F832
:100BD4002268184B9A422AD103F5843300240194E5
:100BE4005A6C154842F480525A645A6C02F480528A
:100BF4000192019A02941A6B42F001021A631B6B70
:100C040003F001030293E022029B0223CDE90323B4
:100C140003210523CDE9061303A900F003FF2320D4
:100C24002246214600F0CCFC232000F0FBFC08B057
:100C340010BD00BF003001400000024082B00C4BE8
:100C4400002100915A6C42F480425A645A6C02F4B6
:100C540080420092009A01911A6C42F080521A6408
:100C64001B6C03F080530193019B02B0704700BFDB
:100C74000038024008B502F069F8FEE7FEE7FEE737
:100C8400FEE7FEE770477047704700F02BBB00009B
:100C9400014803F06AB900BFB8030020014803F01B
:100CA40064B900BF70030020014803F05EB900BFBF
:100CB40048040020014803F058B900BF0004002094
:100CC400014803F053B800BF18030020014803F0A3
:100CD4000FBD00BFD8040020014802F0DBBE00BFF6
:100CE40094020020014800F0DDBD00BF3402002062
:100CF400014801F0D5B900BF40140020014800F0BC
:100D0400D1BD00BFD4010020014803F0F1BC00BFF5
:100D140090040020034AD2F8883043F47003C2F8E8
:100D24008830704700ED00E01FB50368B3F1804FD1
:100D340016D1002203F50E330192196C41F0010122
:100D440019641B6C03F0010301931C201146019BE1
:100D540000F036FC1C2005B05DF804EB00F062BC2A
:100D6400164A934211D1164B00220292596C41F457
:100D7400003159645B6C03F400330293192011466B
:100D8400029B00F01DFC1920E5E70E4A934211D1A5
:100D94000B4B00220392596C41F4802159645B6C23
:100DA40003F4802303931A201146039B00F008FCEC
:100DB4001A20D0E705B05DF804FB00BF00440140F1
:100DC400003802400048014007B50F4B02689A42C0
:100DD40016D1002203F50D330192196C41F0020182
:100DE40019641B6C03F00203019311461D20019B3F
:100DF40000F0E6FB1D2003B05DF804EB00F012BC2C
:100E040003B05DF804FB00BF0004004010B51422D9
:100E14008AB0044600210DEB020005F091FF23681F
:100E2400B3F1804F18D100230193294B1A6B42F080
:100E340002021A631B6B03F002030193019B4FF43C
:100E440080610223CDE9051301232248099305A9F2
:100E540000F0E8FD0AB010BD1F4A934210D10023F0
:100E640002931B4B1A6B42F002021A631B6B03F0D2
:100E740002030293029B10220223CDE90523E4E737
:100E8400164A934212D100230393114B1A6B42F07A
:100E940002021A631B6B03F002030393039B4FF4D8
:100EA40080730593022306930323CEE70C4A9342EF
:100EB400D0D100230493064B1A6B42F002021A634A
:100EC4001B6B03F002030493049B4FF40073E8E7E5
:100ED4000038024000040240000400400044014085
:100EE4000048014010B58EB01022002103A805F07F
:100EF40027FF00241C2221460DEB0200CDE901440A
:100F040005F01EFF1D484FF08043C0E900344FF048
:100F1400FF33C0E903348460846103F00FF908B13E
:100F2400FFF7ECFC4FF480531448039303A903F038
:100F3400EBF908B1FFF7E2FC104803F02BF908B114
:100F4400FFF7DCFC00240D4801A9CDE9014403F0BE
:100F540075FA08B1FFF7D2FC602308480994082207
:100F640007A9CDE907340B9403F06CF908B1FFF736
:100F7400C5FC0248FFF74AFF0EB010BD480400202C
:100F840010B500248AB01C22214603A8CDE90144EF
:100F940005F0D6FE1448154B8460C0E900344FF6C2
:100FA400FF73C0E90334846103F0F4F808B1FFF778
:100FB400A5FC0D4801A9CDE9014403F03FFA08B1AD
:100FC400FFF79CFC002260230748059203A9CDE9A2
:100FD4000332079203F036F908B1FFF78FFC024899
:100FE400FFF714FF0AB010BD000400200004004005
:100FF40000B589B01C22002101A805F0A1FE144807
:10100400144A0023C0E900234FF6FF72C0E903230A
:101014008360836103F092F808B1FFF76FFC0C481A
:1010240003F0B8F808B1FFF769FC00226023084810
:10103400039201A9CDE90132059203F003F908B145
:10104400FFF75CFC0248FFF7E1FE09B05DF804FB22
:10105400B80300200044014000B589B01C220021DF
:1010640001A805F06DFE1448144A0023C0E90023CA
:101074004FF6FF72C0E903238360836103F05EF8D7
:1010840008B1FFF73BFC0C4803F084F808B1FFF704
:1010940035FC002260230848039201A9CDE90132FE
:1010A400059203F0CFF808B1FFF728FC0248FFF7D8
:1010B400ADFE09B05DF804FB700300200048014058
:1010C4000B480C4A08B54FF4E133C0E90023002370
:1010D4000C22C0E90233C0E905230361C36103F0B4
:1010E40071FA18B1BDE80840FFF708BC08BD00BF9D
:1010F400D8040020001001400B480C4A08B54FF4F6
:10110400E133C0E9002300230C22C0E90233C0E923
:1011140005230361C36103F055FA18B1BDE8084023
:10112400FFF7ECBB08BD00BF900400200014014091
:1011340010B514228AB0044600210DEB020005F01C
:10114400FFFD23682E4A93422DD12E4B0024019497
:101154005A6C42F010025A645A6C02F01002019266
:10116400019A02941A6B42F001021A631B6B03F09A
:1011740001030293029B4FF4C0600223CDE90503EF
:101184004FF0030C0723204805A9CDE908C300F05C
:1011940049FC25202246214600F012FA252000F0C1
:1011A40041FA0AB010BD194A9342FAD1154B1848B6
:1011B400002403945A6C42F020025A645A6C02F0E0
:1011C40020020392039A04941A6B42F004021A63F5
:1011D4001B6B03F004030493C022049B0223CDE998
:1011E400052303210823CDE9081305A900F01AFCFF
:1011F40047202246214600F0E3F94720CFE700BF0D
:101204000010014000380240000002400014014078
:1012140000080240DFF834D0FFF77CFD0C480D498C
:101224000D4A002302E0D458C4500433C4188C423D
:10123400F9D30A4A0A4C002301E013600432A242A3
:10124400FBD305F085FDFFF735FB70470000012057
:1012540000000020FC0000203C6E0008FC00002080
:1012640024190020FEE7000038B50E4B1A784FF41D
:101274007A73B3FBF2F30C4A05461068B0FBF3F043
:1012840000F0DEF9044658B90F2D09D80246294664
:101294004FF0FF3000F094F9044B20461D6038BD38
:1012A4000120FCE7040000200000002008000020CA
:1012B40008B50B4B1A6842F400721A601A6842F4BB
:1012C40080621A601A6842F480721A60032000F087
:1012D40065F90F20FFF7C8FFFFF7B0FC002008BD39
:1012E400003C0240034A044B11681B780B44136012
:1012F400704700BF2005002004000020014B18683F
:10130400704700BF2005002038B50446FFF7F6FFFC
:10131400631C1CBF054B1B78054618BFE418FFF778
:10132400EDFF431BA342FAD338BD00BF04000020E5
:1013340038B50446002800F09B80056C25B9FFF7FA
:10134400FBF8656484F83C50236CDB0600F18E8066
:10135400236C23F4885323F0020343F00203236431
:10136400444B5A6822F440325A605A6861680A430E
:101374005A60236821695A6822F480725A605A6854
:1013840042EA01225A605A68A16822F040725A6007
:101394005A680A435A609A68E16822F400629A60C3
:1013A4009A680A439A603449A26A8A4252D0996878
:1013B40021F07061996099680A439A609A68E16AB9
:1013C40022F040529A609A680A439A609A6822F01E
:1013D40002029A609A68217E42EA41029A6094F875
:1013E4002020002A3ED05A68616A42F400625A60A2
:1013F4005A6822F460425A605A68013942EA41321A
:101404005A60DA6AE16922F47002DA62DA6A01394E
:1014140042EA0152DA629A6822F400729A609A6887
:1014240094F8301042EA41229A609A68616922F481
:1014340080629A609A68002042EA81229A6060641D
:10144400236C23F0030343F001032364002384F893
:101454003C3038BD9A6822F070629A609A6822F033
:101464004052B2E75A6822F40062C9E70120EDE76E
:101474000120EEE7002301400100000FF7B500232F
:10148400019390F83C30012B05467CD0012380F871
:101494003C3008682B688E68092884B230D904EB84
:1014A4004402DF681E3A4FF0070C0CFA02FC27EAEC
:1014B4000C07DF60DF6806FA02F23A43DA60496833
:1014C400062901EB81022AD8596B053A1F2696405A
:1014D40021EA06015963596B04FA02F20A435A637A
:1014E4002A4A934207D1122834D1D2F8043343F460
:1014F4008003C2F80433002085F83C0003B0F0BD3B
:101504001A6900EB400C072707FA0CF722EA0702D6
:101514001A611A6906FA0CF616431E61CFE70C2904
:101524004FF01F010BD81E6B233A914026EA0101AC
:101534001963196B04FA02F20A431A63D0E7DE6AEC
:10154400413A914026EA0101D962D96A94400C4398
:10155400DC62C5E7A0F11003012BCCD80C4A536818
:10156400102843F400035360C5D10A4B0A4A1B6890
:10157400B3FBF2F30A2253430193019B002BBAD02D
:10158400019B013BF8E70220B8E700BF00200140BF
:10159400002301400000002040420F000749CA68B0
:1015A40022F4E0620302120403F4E063120C134316
:1015B40043F0BF6343F40033CB60704700ED00E0B9
:1015C400164B30B5DC68C4F30224C4F10703251DAF
:1015D400042B28BF0423062D4FF0FF358CBF033C9A
:1015E400002405FA03F321EA0303A54022EA0502D5
:1015F400A340002843EA0203ACBF00F16040084A5C
:101604004FEA0313B8BF00F00F00DBB2AABF00F526
:101614006140135480F8003330BD00BF00ED00E09A
:1016240014ED00E0002807DB044A4109012300F01F
:101634001F00834042F82130704700BF00E100E002
:101644000138B0F1807F0BD24FF0E023054A586196
:10165400F02182F823100020072298611A61704754
:101664000120704700ED00E0036810B5084C024605
:10167400D9B210391820B1FBF0F0205CD06523F406
:101684007F7020F003005F2988BF0430906510BD8F
:10169400CC6D000870B50446FFF730FE0546002CFB
:1016A40060D0022384F835302268002384F8343073
:1016B400136823F00103136022681368D8072ED43B
:1016C40013683248A1691840D4E901352B43E56811
:1016D4002B4325692B4365692B43E5690B432B4356
:1016E400256A2B430343606A042802BFD4E90B56DE
:1016F40035432B4313605369042823F0070343EA5B
:10170400000335D1A06AE56A03438DB391B901287A
:1017140020D030F002012BD1E90129D51DE0FFF7DB
:10172400EDFD401B0528C7D920230320636584F8F9
:10173400350070BDB1F5005F16D1032818D801A19A
:1017440051F820F05F1700081D1700085F17000804
:1017540059170008B5F1C07F0AD1402363650123FE
:1017640084F835300120E4E70228F6D90328D3D0E1
:1017740053612046FFF778FFE26D3F239340836077
:1017840000200123606584F83530D2E73F8010F0F3
:1017940070B590F83440866D012C30D0012480F867
:1017A400344090F83540012C4FF0000425D1022537
:1017B40080F8355044650468256825F48025256043
:1017C40063608368402B0EBFA260A160E260C26DBB
:1017D40008BFE1603F239340B360236843F01603DE
:1017E4002360036C1BB1236843F008032360236860
:1017F40043F001032360002070BD80F834400220D0
:10180400FAE770B50446866DFFF778FD94F8353035
:10181400022B054606D0802363650120002384F84B
:10182400343070BD23681A6822F016021A605A69AF
:1018340022F080025A61226C0AB9A26C1AB11A68A9
:1018440022F008021A601A6822F001021A60236862
:10185400186810F0010007D1E26D3F239340B36094
:10186400012384F83530D9E7FFF748FD401B0528EC
:10187400EDD920230320636584F83500CEE790F882
:101884003530022B03D08023436501207047026862
:10189400052380F83530136823F00103136000201A
:1018A40070470000F7B5002301935C4B856D1F68FA
:1018B400C36D2E6808229A40324204460CD0016857
:1018C4000868400708D5086820F004000860AA608A
:1018D400626D42F00102626501229A40324208D0F0
:1018E40021684969090641BFAA60626D42F002029B
:1018F400626504229A40324208D021680968880748
:1019040041BFAA60626D42F00402626510229A40EF
:10191400324210D02368196809070CD5AA601A68E6
:10192400500337D51B68190301D4236C00E0A36C62
:101934000BB120469847E16D20228A4032423AD0CA
:1019440023681868C60636D5AA6094F83520052A97
:101954001A6827D122F016021A605A6922F080020E
:101964005A61226C0AB9A26C1AB11A6822F00802F0
:101974001A603F238B40AB60012384F83530002389
:1019840084F83430236D002B45D0204603B0BDE8E5
:10199400F04018471A68D2055EBF1A6822F00802A0
:1019A4001A60C2E7500327D51B68190331D4636C4E
:1019B4000BB120469847636D6BB3636DDA0719D595
:1019C40022684FF41653B7FBF3F7052384F8353038
:1019D400136823F001031360019B0133BB4201939D
:1019E40002D81368DB07F7D4012384F835300023C9
:1019F40084F83430E36CC6E71A6812F4807208D1B4
:101A0400196821F010011960012384F8353084F835
:101A14003420E36BCCE703B0F0BD00BF000000202E
:101A2400406D70472DE9F74FDFF880915D4A002340
:101A34000D6801249C4004EA0506AC4340F0A380F1
:101A44004D68032705F003044FEA430807FA08FC2E
:101A5400671E012F6FEA0C0C34D8876807EA0C0E56
:101A6400CF6807FA08F747EA0E078760476827EA4E
:101A7400060EC5F300179F4047EA0E074760C76884
:101A840007EA0C0E8F6807FA08F747EA0E07022CDC
:101A9400C76019D14FEAD30A00EB8A0A03F0070B97
:101AA400DAF820704FEA8B0B4FF00F0E0EFA0BFE94
:101AB40027EA0E0E0F6907FA0BF747EA0E07CAF872
:101AC400207001E0032CDAD1076804FA08F407EA6D
:101AD4000C073C4315F4403F046054D000240194A7
:101AE400D9F8444044F48044C9F84440D9F8444007
:101AF40023F0030707F1804704F4804407F59C377B
:101B0400019403F0030C019CD7F808E04FEA8C0C15
:101B14000F2404FA0CF42EEA040E234CA04239D00C
:101B240004F58064A04237D004F58064A04235D027
:101B340004F58064A04233D004F58064A04214BF4D
:101B44000724042404FA0CF444EA0E04BC609468E8
:101B5400F74315F4801F0CBF3C4034439460D468B1
:101B640015F4001F0CBF3C403443D460546815F492
:101B7400003F0CBF3C40344354601468ED0354BF31
:101B84003C40344314600133102B7FF451AF03B055
:101B9400BDE8F08F0024D5E70124D3E70224D1E780
:101BA4000324CFE7003C014000000240003802401B
:101BB4000369194214BF0120002070470AB18161F2
:101BC40070470904FBE7000070B5044608B901201A
:101BD40070BD90F83D3003F0FF021BB980F83C2043
:101BE400FEF7DAFD242384F83D3023681A6822F0D6
:101BF40001021A601A6842F400421A601A6822F458
:101C040000421A6001F080F83F4B65689D4294BF22
:101C14003E4B3F4B98428CBF00230123002BD6D16F
:101C24002268394E51683B4BB0FBF3F321F03F017E
:101C34001943B542516088BF4FF49676116A88BF44
:101C4400734321F03F0184BF4FF47A76B3FBF6F37C
:101C540001330B431362D169431E2B4821F44F41D6
:101C6400854221F0FF0132D86D0040F6FC70B3FBD1
:101C7400F5F30133034242D0C3F30B031943D1619B
:101C8400D4E907301168034321F0C0010B4313600A
:101C94009168D4E9030321F40341034321F0FF01D4
:101CA4000B439360D4E90530D168034321F0FF016D
:101CB4000B43D360136843F0010313600020202317
:101CC400206484F83D30206384F83E0080E7A068F7
:101CD40050B905EB4505B3FBF5F30133C3F30B032F
:101CE4007BB143F40043C9E719206843B3FBF0F325
:101CF4000133C3F30B0323B143F44043BEE704238E
:101D0400BCE70123BAE700BFA08601007F841E0060
:101D1400FF083D0040420F00F7B5044610B390F8A9
:101D24009534056803F0FF021BB980F8942404F08D
:101D3400D1FE0323B5F1A04F84F8953404BF0023EA
:101D4400A371206803F044FA237C8DF80030251D2C
:101D540095E80E00206803F080F9014630B10223B3
:101D640084F895340125284603B0F0BD206803F0BB
:101D740035FA0028F3D1267904F114030127024629
:101D8400C1B28E4203F124031BD8002104F515735C
:101D94000A46C8B2864203F1240320D8237C8DF876
:101DA400003095E80E00206803F094FA05460028F8
:101DB400D5D101236074206884F8953403F0B0FD14
:101DC400D1E723F80A0C43E9072203F8237C03F83C
:101DD400241C03F8202C43F8142C0130D0E743E9E9
:101DE400072203F8232C03F8240C03F8202C43F8CF
:101DF400142C0131CDE710B50446006894F89434EE
:101E0400012B15D0012384F89434C3685B0606D5EE
:101E1400637B012B02BF836B43F48033836303F042
:101E2400D1F9206803F06EFD002084F8940410BDFD
:101E34000220FCE710B590F89424012A04460AD045
:101E4400012280F894244174006803F04BFD0020C3
:101E540084F8940410BD0220FCE770B501F00F066D
:101E640006EBC60411F0800F05464FEA84044FF0D8
:101E740024001ED000FB065004F11401012429445F
:101E840044758A604A780E700B7102B14E83022B3E
:101E940004BF00234B7195F89434012B12D0012315
:101EA400286885F8943403F0DAFA002085F894045D
:101EB40070BD00FB065004F515710024294480F818
:101EC4005542DEE70220F3E710B5044601F00F00A7
:101ED40000EBC00311F0800F4FEA83034FF024029C
:101EE40015D002FB004203F1140101232144537570
:101EF400087094F89434012B12D00123206884F8DC
:101F0400943403F0EBFA002084F8940410BD02FB2F
:101F1400004203F515710023214482F85532E7E7A6
:101F24000220F3E770B501F00F05242404FB05013A
:101F340004FB0504C4E998230023C4F8683284F838
:101F4400553284F85452164682790068012A01F504
:101F5400157108BFC4F8706203F06CFB002070BDFB
:101F640001F00F01242303FB0100D0F8680270473D
:101F740070B501F00F05242404FB050104FB0504DE
:101F8400C4E908230023A36201236375257516465B
:101F9400827900689A4201F1140108BF266303F0B4
:101FA40049FB002070BD38B5037901F00F05AB4241
:101FB40004462BD311F0800F4FF024001DD000FBFA
:101FC400054100FB054001231431437501238B7047
:101FD4000D7094F894249A421AD0206884F89434AA
:101FE40003F02CFC2DB9A179206804F29C4203F083
:101FF400E7FC002084F8940438BD00FB01431A4632
:1020040003F51571002382F85532DFE70120F3E769
:102014000220F1E738B5037901F00F029342044638
:1020240029D302EBC20311F0800F4FEA83034FF070
:10203400240017D000FB024003F1140101232144C2
:10204400437500258D700A7094F89434012B14D0D4
:102054000123206884F8943403F01BFC84F894541E
:10206400284638BD00FB024003F5157100232144C6
:1020740080F85532E5E70120F3E70220F1E701F0AB
:102084000F0303EBC3030A064FEA83034CBF03F1B8
:10209400140103F515710144006803F075BA0000DA
:1020A4002DE9F04F066889B00446304603F074FC0D
:1020B4000390002840F05781206803F03FFC00287B
:1020C40000F05181D6F808382068C3F30D23C4F812
:1020D400D43403F033FC870748BF2268206842BF2A
:1020E400536903F00203536103F028FCC00606F5AC
:1020F40000652CD52268936923F010039361D6F808
:102104002080C8F34343022B08F00F0740F02E81D0
:1021140047F6F07318EA030F14D0242303FB074790
:10212400C8F30A19D7F860124A46304603F066FB32
:10213400D7F860324B44C7F86032D7F868324B4462
:10214400C7F868322268936943F0100393612068EA
:1021540003F0F4FB010300F11B81206803F0EEFBA4
:1021640042030DD5206803F0F5FB2746049006F5DD
:10217400106B4FF0000A049B2068002B40F0D581BF
:10218400206803F0DBFB002813DA6B6823F00103FB
:102194006B6094F8CC34012B40F06D82002184F8FC
:1021A400CC14204600F0E9FA2268536903F0004396
:1021B4005361206803F0C2FB01050AD5AB68DA0756
:1021C40002D5204604F0F6FC2268536903F4006348
:1021D4005361206803F0B2FBC30433D56B682068F5
:1021E40023F001036B60102103F028F8207906F531
:1021F40010634FF67F31039A904200F24082EB69FC
:1022040043F00113EB61E37B002B00F05582D5F81A
:10221400843043F00B03C5F884306B6C43F00B033C
:102224006B64D6F80038206823F4FE63C6F80038DF
:1022340004F29C42A17903F0C3FB2268536903F4BE
:1022440080535361206803F079FB870416D5206816
:1022540003F0A6FB206803F0F7F8E071276800F0AC
:102264004DFDE2790146384602F03CFF204604F079
:102274008EFC2268536903F400535361206803F011
:102284005DFB000707D5204604F07DFC22685369F6
:1022940003F008035361206803F050FB010600F1CA
:1022A4001682206803F04AFBC2020CD5A04606F54C
:1022B400126901272379BB4200F222822268536902
:1022C40003F480135361206803F038FB83022DD597
:1022D40094F804E0234606F5326001218E4520D9A6
:1022E40093F87CC20268BCF1010F40F01F82002AFF
:1022F40080F21C82D4F8D47402F4803207F001070F
:10230400BA4240F0138283F87BC2B26942F0800281
:10231400B2617269170600F109826B6843F40073B5
:102324006B602268536903F400135361206803F05F
:1023340005FB410007D5204604F060FC2268536980
:1023440003F080435361206803F0F8FA42070AD58A
:1023540023685D686B0702D5204604F053FC2268AD
:1023640053682B43536009B0BDE8F08F062B7FF40C
:10237400E9AE082204F29C41304603F03FFA2423DC
:1023840003FB0747C8F30A18D7F868324344D7E673
:10239400206803F0D7FA06F530680490A2460027B7
:1023A400049B2068002B3FF4D8AE049BDB0778D550
:1023B4005FFA87FB594603F0D5FA10F0010F814606
:1023C4001FD020680123C8F8083094F806C0016CB7
:1023D40000F5306303EB4713BCF1010F9A6840F03A
:1023E4008E8012F0080F07D0B148814209D9120437
:1023F40007D54FF4004203E012F0200F5AD02022F8
:102404009A6019F0080F21D00823C8F8083023680F
:10241400A7491A6C03F5306303EB47138A429868A3
:1024240004D9010444BF4FF400409860204605924B
:1024340004F092FB059A9E498A4207D9A1790129A1
:1024440004D1206804F29C4203F0BAFA19F0100F88
:102454001CBF1023C8F8083019F0020F14D0736998
:102464001A0642BF6B6843F480636B609AF8573274
:10247400012B06D100238AF857325946204604F02E
:10248400B5FB0223C8F8083019F0200F1CBF202325
:10249400C8F8083019F4005F1CBF4FF40053C8F8A3
:1024A4000830049B5B080137049308F120080AF103
:1024B400240A75E712F0280FA3D1DFF8F4C16145AF
:1024C40001D9120495D41A69DAF87432C2F31202EB
:1024D4009B1ACAF868326FB9D4F864222AB904F294
:1024E4009C42012103F06CFA04E0D4F860221A44FF
:1024F400C4F860225946204604F034FB81E7DFF833
:10250400B4C1614507D111043FF573AF9006F1D50D
:1025140020229A60EEE7002FECD1D4F86432002B2D
:10252400E8D104F29C423946DCE7049BDB0740F126
:1025340099805FFA8AF31946059303F01CFA10F0A8
:10254400010F80461FD06B6B01210AF00F0201FAC4
:1025540002F223EA02036B63CBF80810A179012984
:102564000DD1D7E9072313443B62BAF1000F06D11A
:10257400636A23B9206804F29C4203F021FA0599A6
:10258400204604F0F8FA18F0080F1CBF0823CBF813
:10259400083018F0100F1CBF1023CBF8083018F0C7
:1025A400400F1CBF4023CBF8083018F0020F0FD0A7
:1025B4005146304602F042FEFB7D012B05D100233B
:1025C4000599FB75204604F015FB0223CBF808306F
:1025D4002368069318F0800F44D0D7E909329A4251
:1025E40040D8A3EB0208FB69984528BF9846069B90
:1025F40003F5106308F1030803EB4A134FEA980844
:102604000793079B996989B24145D7E9093227D3D2
:1026140093420BD8069B0AF00F00D3F8342801210B
:10262400814022EA0102C3F834281BE0A3EB02092B
:10263400FB69059A0698994528BF9946A3790093A2
:10264400396A1FFA89F302F0E1FF3B6A4B443B62AB
:10265400BB6A09F103084B444FEA9808BB62D0E710
:102664009342D7D9049B5B080AF1010A04932437E7
:102674000BF1200B7FE5204604F0B4FA94E5996051
:102684001A6822F400121A60C3F80812D3F8002260
:1026940022F40012C3F80022D3F8002242F00062B0
:1026A400C3F80022039A013203922033A3E500BF4A
:1026B4000A30544F0A31544F6B6943F4005343F0CA
:1026C4002B036B612B6943F00B032B61A9E5B36901
:1026D40023F08003B361012704F257284FF0240943
:1026E4002379BB427FF6DDAD09FB07F318F803300D
:1026F400012B03D1F9B22046FFF7C1FC0137EFE704
:1027040098F83C30D9F80020012B09D1002A07DAC7
:1027140067F07F0188F83B30C9B22046FFF7AFFC71
:10272400013708F1240809F12009C3E501312433F4
:102734002030D3E5036870B5586A120419B902430E
:102744009A62002070BD9C6A4E1E00EB1440002467
:10275400B44205D33F3103EB810302435A60F0E7EF
:1027640004F1400503EB850501346D6800EB154069
:10277400EEE7036800205962704770472DE9F34182
:10278400044640B30368DE0710D423689D075BD476
:102794002368190700F19D8023685A0700F1BD8062
:1027A400A369002B40F0248100202CE08D4B9A6813
:1027B40002F00C02042A07D09A6802F00C02082ADC
:1027C4000BD15B68590208D5864B1B689A03DCD58C
:1027D4006368002BD9D1012015E06368814DB3F5FE
:1027E400803F13D12B6843F480332B60FEF786FDC2
:1027F4007C4E054633689B03C7D4FEF77FFD401B20
:102804006428F7D9032002B0BDE8F081B3F5A02F06
:1028140004D12B6843F480232B60E3E72A6822F475
:1028240080322A602A6822F480222A60002BDDD1BB
:10283400FEF764FD06462B689F03A6D5FEF75EFDF2
:10284400801B6428F7D9DDE7664B9A6812F00C0FF9
:1028540007D09A6802F00C02082A11D15B685D0265
:102864000ED4604A1368990702D5E368012BB2D1EC
:102874001368216923F0F80343EAC103136087E76F
:10288400E268594BB2B101221A60FEF737FD554D8B
:1028940006462B689B0707D52B68226923F0F803AB
:1028A40043EAC2032B6073E7FEF728FD801B02286E
:1028B400EFD9A7E71A60FEF721FD4A4E05463368B3
:1028C4009F077FF565AFFEF719FD401B0228F6D977
:1028D40098E76269444B82B10122C3F8802EFEF767
:1028E4000DFD404E0546736F9B073FF555AFFEF750
:1028F40005FD401B0228F6D984E7C3F8802EFEF7B5
:10290400FDFC384E0546736F9F077FF545AFFEF714
:10291400F5FC401B0228F6D974E7324B1A6C12F00E
:10292400805228D101921A6C42F080521A641B6CB6
:1029340003F080530193019B01272C4D2B68D8058C
:102944001BD5A368274D012B27D12B6F43F001031F
:102954002B67FEF7D3FC234E054641F28838336FCC
:102964009A0739D5002F3FF41BAF1E4A136C23F08E
:102974008053136414E70027DFE72B6843F4807364
:102984002B60FEF7BBFC06462B68D905D9D4FEF7AD
:10299400B5FC801B0228F7D934E7052B04D12B6F33
:1029A40043F004032B67D0E72A6F22F001022A6761
:1029B4002A6F22F004022A67002BCAD1FEF79EFC7C
:1029C40041F2883806462B6F9B07CBD5FEF796FC61
:1029D400801B4045F7D915E7FEF790FC401B4045A6
:1029E400BDD90FE7003802400000474200700040A4
:1029F400374DAA6802F00C02082A3ED0022B354B50
:102A04004FF000021A662BD1FEF778FC06462B68BD
:102A140099011FD4D4E907321343626A43EA82134B
:102A2400E26A43EA0263A26A5208013A43EA0243B1
:102A34006B60284B264D01221A66FEF75FFC0446A4
:102A44002B689A013FF5B0AEFEF758FC001B022834
:102A5400F6D9D7E6FEF752FC801B0228D7D9D1E677
:102A6400FEF74CFC04462B689B017FF59DAEFEF7F8
:102A740045FC001B0228F6D9C4E6012B3FF4ABAE9B
:102A84006B68E26903F4800191427FF4A4AE216A89
:102A940003F03F028A427FF49EAE616A47F6C07239
:102AA4001A40B2EB811F7FF496AEA26A520803F477
:102AB4004031013AB1EB024F7FF48DAEE26A03F08C
:102AC4007063B3EB026F14BF012000209BE600BFCC
:102AD400003802400000474270B5224C88B00E46D0
:102AE4001546F8B90190236B43F001032363236B6C
:102AF400079003F001030193019B4FF4807C0223B0
:102B0400CDE903C30323CDE9050303A91648FEF762
:102B140089FFA36823F0EC6343EA06012943A1601B
:102B240008B070BD00230293226B104842F00402E7
:102B34002263226B079302F004020292029A4FF47A
:102B440000710222CDE90312032203A9CDE9053263
:102B5400FEF768FFA36823F0784343EA060141EADD
:102B6400C501DCE7003802400000024000080240D2
:102B7400014B0122DA64704700004742104908B54E
:102B84008B6803F00C03082B18D14A684B6849681A
:102B94000C4813F48003C1F3881118BF002302F01A
:102BA4003F02A1FB0001FDF71BFB054B5B68C3F370
:102BB400014301335B00B0FBF3F008BD0148FCE7BF
:102BC400003802400024F4002DE9F0410D4604468B
:102BD40010B90120BDE8F081434B1A6802F00702E6
:102BE4008A4228D321688F072DD4C80740D43E4B8E
:102BF4001A6802F00702AA4265D8226851076BD40A
:102C0400130707D5394A2169936823F4604343EADB
:102C1400C1039360FFF7B2FF344B354A9B68C3F39B
:102C24000313D35CD840334B1860334B1868FEF75A
:102C34001BFB0020CEE7CAB21A701B6803F007031F
:102C44008B42C6D1CEE7294B11F0040F1EBF9A6800
:102C540042F4E0529A600E0742BF9A6842F460421E
:102C64009A609A68A06822F0F00202439A60BCE776
:102C740062681E4B012A1CD11B6813F4003FA8D0C4
:102C84001A4EB36823F003031343B360FEF736FB15
:102C940041F288380746B368626803F00C03B3EB6B
:102CA400820FA4D0FEF72AFBC01B4045F3D90320B2
:102CB40090E7911E01291B6802D813F0007FDEE71C
:102CC40013F0020FDBE7EAB21A701B6803F0070384
:102CD400AB427FF47EAF90E70449E0688B6823F44D
:102CE400E05303438B608BE7003C02400038024012
:102CF400BC6D00080000002008000020014B18688B
:102D0400704700BF00000020044B054A9B68C3F3D2
:102D14008223D35C034A1068D840704700380240CD
:102D2400B46D000800000020044B054A9B68C3F3FF
:102D34004233D35C034A1068D840704700380240DD
:102D4400B46D0008000000207047000010B5044C6A
:102D5400E3681B0603D5FFF7F7FF8023A37310BDB9
:102D640000380240036813F0050FF7B5044639D163
:102D740023689A0731D500230193464B464D1A6CBC
:102D840042F080521A641B6C03F080530193019B40
:102D94002B6843F480732B60FEF7B0FA06462B6869
:102DA400D80548D53B4DE2682B6F13F4407348D1E6
:102DB400E36803F44072B2F5407F364A61D191680A
:102DC40023F0704021F4F81120F440700143916025
:102DD400116FC3F30B030B43136723681B0754D40E
:102DE400002026E02D4B2B4E00229A66FEF786FA31
:102DF400054633681B0116D4D4E901231B0743EAB3
:102E04008213C6F88430254B224E01229A66FEF7BF
:102E140075FA054633681F01AAD4FEF76FFA401B02
:102E24000228F7D904E0FEF769FA401B0228E0D92A
:102E3400032003B0F0BDFEF761FA801B0228AED96F
:102E4400F6E702F440729342B2D02B6F134A012189
:102E5400C2F8401E23F440730021C2F8401E2B67C1
:102E64002B6FD907A4D5FEF749FA41F288370646F5
:102E74002B6F9A079CD4FEF741FA801BB842F7D90E
:102E8400D6E7916821F4F811A1E7054B227CC3F839
:102E9400E021A5E7003802400070004000004742EE
:102EA4000010474238B50368094ADA600446FEF761
:102EB40025FA05462368DB689B0601D5002038BD4A
:102EC400FEF71CFA401BB0F57A7FF3D90320F6E72E
:102ED4005F3F0100036870B5DC6814F040040546E8
:102EE40017D1DA6842F08002DA60FEF707FA064684
:102EF4002B68DB685B0600D40CB1204670BDFEF77E
:102F0400FDF9801BB0F57A7F82BF04236B7701241F
:102F1400EEE70024F1E70368DA6822F0800210B5D6
:102F2400DA609B689B06044601D5002010BDFFF7BC
:102F3400B9FF0028F9D0042363770120F6E710B520
:102F44000446002841D0437F03F0FF0213B90277FF
:102F5400FDF726FD022363772368DA68D20603D5DA
:102F640001236377002010BDCA225A6253225A6299
:102F74002046FFF7AFFF10BB236820699A6822F44C
:102F8400E00222F040029A60626899680243606934
:102F940002430A439A60E2681A611A69A16842EA24
:102FA40001421A612046FFF7B6FF40B92368A169C0
:102FB4001A6C22F480221A641A6C0A431A64236875
:102FC400FF225A620028CBD0CDE70120CBE70023B3
:102FD400092803D840EA0310C0B270470A38013305
:102FE400C0B2F5E72DE9F041037F012B06460F46F9
:102FF4004FF0020041D0012331683377707738787D
:103004007D78BC788B68002A39D113F0400308BF5F
:10301400FB70FFF7DCFF80462846FFF7D8FF024627
:103024002046FFF7D4FFFB7840EA835343EA084382
:1030340043EA0224CA234B6253234B623046FFF710
:1030440049FFA8B9326804F07F3424F0FE441460C8
:10305400936823F480239360D7E903309168034392
:103064000B4393603046FFF756FF08B9012373778B
:103074003368FF225A6200233377BDE8F08113F0EE
:10308400400308BFFB702D02FA7845EA004545EA83
:10309400040343EA8254CDE7F8B5037F012B0546C8
:1030A4004FF0020027D001232B7768770E78C87879
:1030B4004C788F787603FAB146EA00433B4343EAFF
:1030C40004242B68CA225A6253225A622846FFF704
:1030D40001FF58B92A6824F07F4424F0C0045460E6
:1030E4002846FFF718FF08B901236B772B68FF22E6
:1030F4005A6200232B77F8BDE30642BF24F0100484
:103104000A344C70FFF763FF04464878FFF75FFF0B
:1031140002463846FFF75BFF40EA060343EA0443EE
:1031240043EA0224CDE730B5037F012B04464FF078
:10313400020023D0607720680B688D68026C022D32
:1031440042EA03024FEA43030CBF1A439A43D1E90C
:1031540003352B434D692B438D692B434D68C96956
:1031640022F4FF322B4322F4C0720B43134323F0A7
:1031740004030364012300206377207730BD836B4D
:103184001A68D36B43F48073D3637047F0B589B086
:1031940005460E46FEF7B2F80023074608212868C4
:1031A400CDE9003301F0F8FC0446D8B9296D28684C
:1031B400090401F0A2FD0446A0B94FF0FF31082331
:1031C400CDE9021330200223CDE9040302A901232F
:1031D40028680694079301F017FC286801F0BFFDE6
:1031E400044690B1204609B0F0BD436B9A0212D553
:1031F40001F0E4FB08AB03EB8403013443F8200C37
:10320400FEF77CF8C01B013026D02868436B13F00E
:103214002A0FEAD002E0436B9B04F1D4436B1907F5
:1032240002D4436B9A0502D508248463DAE7436B1E
:103234009B0701D50224F8E7446B14F0200401D065
:103244002024F2E740F23A538363019B1BBA3360B4
:10325400009B1BBA7360C5E74FF00044C2E700004F
:103264002DE9F043154687B004461F460A4641B986
:10327400836B43F00063A3630126304607B0BDE8C7
:10328400F08390F83430012B5FFA83F870D1002179
:103294008163C06DEB19834203D9A36B43F00073C0
:1032A400E9E72668206C032384F83430F162F36B79
:1032B40043F44A7343F00203F3632E4BC3632E4B70
:1032C4008160C0E9133101680B684FEA472923F094
:1032D400C0030B6006F180014FEA9903FEF758FA28
:1032E400064668B12368DA6B22F49572DA63234ADE
:1032F4009A63A36B43F08043A36384F83480BBE7F1
:103304001F4B2068C3F88C85636C012B4FF0FF338F
:10331400CDE900394FF090024FF00203CDE90223CA
:103324004FF000014FF00103CDE90413694618BFC3
:103334006D0201F069FB012F13D9822320682363F6
:10334400294601F05BFC002897D023680B4A9A6356
:10335400A36B0343A363012384F834300023236362
:103364008AE7812320682363294601F02EFCEAE7DB
:10337400022682E7A7340008F5390008FF0540005B
:10338400008025422DE9F0410F4686B004461146DF
:103394001E4647B9836B43F00063A3630127384695
:1033A40006B0BDE8F08190F83430012B6DD10022D5
:1033B4008263C06D8B19834203D9A36B43F00073FE
:1033C400EBE72068324D032384F83430C262C36BC8
:1033D40043F4067343F00203C363E36BDD632D4DD3
:1033E400C3E91352636C012B18BF4902012E11D992
:1033F400A023236301F034FC2268054678B1264BF0
:103404009363A36B0343A363012384F83430002341
:103414002363C3E79023236301F009FCECE7E06B2B
:103424001E4B01684FF00108C3F88C85402383606C
:103434000B6823F0C00343F0400376020B60803234
:103444003946B308FEF7A4F9074680B12268D36B66
:1034540023F4067323F00203D3630F4B9363A36B2C
:1034640043F08043A36384F83480256396E74FF0E8
:10347400FF33CDE90036206890236946CDE9023553
:10348400CDE9045801F0C0FA89E7022787E700BFB5
:1034940083310008F5390008FF054000008025420B
:1034A400704710B5846B236B2068822B08D101F020
:1034B400F1FB28B1A36B0343A3632046FFF7F0FF9E
:1034C4002368DA6A22F00802DA6240F23A529A6316
:1034D400012384F8343000232363204602F0D9FA10
:1034E40010BD0000426E0346900F10B50870C2F381
:1034F40083604870C2F301608870C2F30740C870EB
:10350400C2F30720D2B208714A719A6E100DC880B6
:10351400C2F303400872C2F3C0304872C2F3803071
:103524008872C2F34030C872C2F3003008730020BE
:103534004873586C00286BD1D86E40F6FC7404EACA
:10354400820242EA90720A61C0F3C2620A75C0F351
:1035540002624A75C0F342528A75C0F38242C0F3D4
:10356400C230CA75087608690A7E02F00702023280
:103574000130904058650C7A012204F00F04A240F7
:103584009A65520A4243DA654FF400721A66DA6E9B
:10359400C2F380304876C2F3C61002F07F02887608
:1035A400CA761B6FDA0F0A77C3F341724A77C3F303
:1035B40082628A77C3F38352CA77C3F3405281F895
:1035C40020200020C3F3004281F8210081F822204A
:1035D400C3F3C03281F82320C3F3803281F824205E
:1035E400C3F3403281F82520C3F3003281F826204A
:1035F400C3F3812281F82720C3F30122C3F34603D6
:1036040081F8282081F82930012381F82A301BE031
:1036140001280FD1B3F86E00120402F47C120243A5
:103624000A610A69013292025A65DA654FF400723E
:103634009A65A9E71A68054991639A6B012042F0DB
:1036440080529A6383F8340010BD00BFFF05400028
:10365400F0B5002399B0CDE90933CDE907330B93D5
:1036640076230C930AAB044693E807008DE8070021
:1036740007AB0ECB206801F085F9054650BB734FAC
:103684000126C7F8A000206801F0A0F90220C7F8BD
:10369400A060FDF739FE2068069501F0C9F90546DA
:1036A40090B9206801F09EFC30B12068A56401F057
:1036B400BFF998B1054607E0A6642068002101F02F
:1036C4001CFB70B14FF08055012384F83430A36B98
:1036D4002B43A3630125284619B0F0BDA36C012B2D
:1036E400EBD05B4F00214FF6FE7614E0206801F02A
:1036F40004FB05460028E7D12068394601F0D4FBD5
:103704000028DFD12946206801F07BF9069B0133AC
:103714000546C10F0693069BB34201D80029E5D0A4
:10372400069BB34211D8C5F38075012320686564F4
:10373400ADF8163001F04EF950B94FF08061012315
:1037440084F83430A36B0B43C3E74FF08075BBE7B9
:10375400636C2068032B43D001F05AFB0146002818
:10376400EDD1206801F04DF904216067206801F073
:1037740048F90821A067206801F043F90C21E067AB
:10378400206801F03EF9636CC4F88000032B27D055
:103794000DF11601206801F0E1FB01460028CED1AD
:1037A400636C2068032B1BD0BDF816102165090437
:1037B40001F044FB01460028C1D1206801F021F941
:1037C40004216066206801F01CF90821A0662068C5
:1037D40001F017F90C21E066206801F012F9206766
:1037E4000421206801F00DF9000DE0640DA92046C4
:1037F400FFF778FE054628BB226D034612042068B5
:1038040001F062FA0146002899D104F1100393E80B
:1038140007008DE80700231D0ECB206801F0B2F8E5
:1038240020684FF4007101F0B7F900283FF453AF5A
:103834002368084A9A63A36B0343A363012384F8B0
:10384400343047E74FF0805179E700BF00802542CC
:10385400000010C1FF05400010B5044608B901205E
:1038640010BD90F8343003F0FF0213B90277FDF76E
:10387400D5F8032384F834302046FFF7E9FE002806
:10388400EDD10123A063206384F83430E8E7436C6E
:103894000B60836C4B60C36C8B60036DCB60436DBA
:1038A4000B61836D4B61C36D8B61036ECB61002033
:1038B40070470000F0B50323044680F83430636C8D
:1038C4000068032B8BB00D4602D0B1F5805F03D1A5
:1038D400A36B43F080531DE0B1F5006F37D1002195
:1038E400CDE9041101F08DF8800149D404A92046E2
:1038F400FFF74CFC60B9059B590344D5216D206842
:10390400090401F0FAF918B90221206801F00EFA4D
:10391400A36B0343A363A66B2768002E3AD0294BFD
:10392400BB63012584F8345020684FF4007101F022
:1039340033F930B12368234A9A63A36B0343A36327
:1039440001250123284684F834300BB0F0BDE9B9D1
:10395400CDE9041101F055F8820111D404A92046DF
:10396400FFF714FC0028D3D1059BDB030BD5216D95
:103974002068090401F0C1F90028C9D10146C4E74F
:103984004FF40060C4E74FF08060C1E7A36B43F0DD
:103994000063BFE763680493A3680593E368CDE914
:1039A400063563690893A36909930AAB13E9070011
:1039B4008DE8070004AB0ECB384600F0E3FF354634
:1039C400B2E700BFFF054000016D10B509040446CD
:1039D400006801F0DDF9014628B9206801F011F80A
:1039E400C0F3432010BDA36B0343A3630020F7E798
:1039F40010B5846BFEF714F8022826D0236C5A6D98
:103A0400E36B012A5B6D01D0012B1BD123680F4AA4
:103A14009A63DA6B22F49D72DA63A36B43F08043FA
:103A2400A3632046FFF7D0FF0538012805D8206896
:103A340001F030F9A36B0343A363012384F834300A
:103A4400002323632046FFF72BFD10BDFF05400034
:103A540010B5846B236840F23A529A632046FFF70C
:103A6400B3FF0123053884F8343001284FF00003F4
:103A7400236305D8206801F00DF9A36B0343A36306
:103A8400A36B204613B901F0FCFF10BDFFF708FD3E
:103A9400FBE700002DE9F341056B04460068436B26
:103AA4001A041FD52B071DD5D4E90A67BFB1351DEC
:103AB40006F12408206800F081FF030A05F8040CCD
:103AC40005F8033C030C000E05F8023C05F8010C54
:103AD4000435A845EED12036203FA662E76202B045
:103AE400BDE8F081436BDF0545D54FF480738363F4
:103AF400C36B23F4434323F03A03C363C36A2E071F
:103B040023F00103C3621BD515F0220F08D001F086
:103B1400C1F828B1A36B0343A3632046FFF7C0FC9D
:103B2400236840F23A529A63012384F83430A90797
:103B34004FF00003236320461AD001F0AAFFCEE71A
:103B44002A06CCD5AB0608D501F0A4F828B1A36B9E
:103B54000343A3632046FFF7A3FCAF07BFD122684A
:103B6400D36A23F00803D362012384F83430204657
:103B740001F08BFFB3E7436B5E0426D5290724D5F8
:103B8400676A002FABD0266A351D06F1240815F8A4
:103B9400043C019315F8032C206843EA02230193A3
:103BA40015F8022C43EA0243019315F8012C01A9EC
:103BB40043EA02630435019300F003FF4545E6D16F
:103BC4002036203F2662676289E7426B40F23A233F
:103BD4001A4284D0436B9A0742BFA36B43F002039B
:103BE400A363436B1B0742BFA36B43F00803A363A8
:103BF400436B9F0642BFA36B43F02003A363436B55
:103C0400DE0642BFA36B43F01003A363436B990525
:103C140042BFA36B43F00803A36340F23A73836388
:103C2400C36B23F44E7323F00203C36301F032F831
:103C3400A36B2A0743EA0003A36308D5012384F88E
:103C44003430002323632046FFF72AFC47E72B0682
:103C54007FF545AF15F0300F0DD0E06B114B0365C8
:103C6400FDF70DFE00283FF43AAFE06B02B0BDE86B
:103C7400F041FFF7EDBE15F0030509D0206C0A4BA7
:103C84000365FDF7FCFD00283FF429AF206CEDE748
:103C94000123A563204684F83430256301F0F1FE46
:103CA4001DE700BF553A0008B13C0008FFF7D0BE3D
:103CB40010B50446002855D0436A002B4ED1426803
:103CC400B2F5827F00D0C3610023A36294F851301F
:103CD40003F0FF0223B984F850202046FCF770FF5C
:103CE4002168A068A269022384F851300B6823F08C
:103CF40040030B60636800F4044003F482730343DD
:103D0400E06800F400600343206900F0020003430C
:103D1400606900F00100034302F400700343E069AA
:103D240000F038000343206A00F080000343A06AD7
:103D340000F4005003430B60636A120C03F0100399
:103D440002F004021A434A60CB6923F40063CB6196
:103D540000200123606584F8513010BD0023C0E9C0
:103D64000433B1E70120F8E770470000036830B579
:103D740059689A6802F04105012D85B0044606D1C0
:103D84004D0604D5036C05B0BDE8304018479507CF
:103D940004D5080602D5636C2046F4E712F4B07F1C
:103DA40059D08D0657D550060FD594F851000328E5
:103DB4004FF0000549D0606D40F004006065009547
:103DC400D868009098680090009895060CD5606DAE
:103DD40040F0010060650020029098680290186825
:103DE40020F0400018600298D00508D5626D42F0BA
:103DF40008026265002203929A680392039A626D34
:103E04004AB35A6822F0E0025A60012284F8512031
:103E14008A0722D05A68E06C22F003025A6040B14B
:103E2400104B0365FDF72BFD18B1636D43F04003A0
:103E34006365A06C78B10B4B0365FDF720FD50B1B1
:103E4400636D43F04003636505E00195DA68019210
:103E54009B680193019B05B030BD2046FFF784FFAA
:103E6400F9E700BF6D3E000808B5806B0023C387E7
:103E7400C386FFF779FF08BD036A026A22F00102D4
:103E8400026270B5446882690D6822F073022A43A5
:103E94008D6823F002032B430A4DA8420BD1CD6851
:103EA40023F008032B43D1E9055624F44074354329
:103EB40023F004032C43446082614A684263036232
:103EC40070BD00BF00000140036A026A22F48072E0
:103ED400026270B54468C2690D6822F073022A4315
:103EE4008D6823F4007343EA05230B4DA8420DD1DA
:103EF400CD6823F4006343EA0523D1E9055624F48D
:103F04004054354323F4806344EA05144460C26199
:103F14004A68C263036270BD00000140036A026A1A
:103F240022F48052026230B54468C2690D6822F4FA
:103F3400E64242EA05228D6823F4005343EA05333E
:103F4400064DA84202BF4D6924F4804444EA851416
:103F54004460C2614A680264036230BD00000140EB
:103F640070477047704770477047036870B5DD68E5
:103F74001E69B10704460DD5AA070BD56FF00202DE
:103F84001A61012202779B699B0769D0FFF7EAFF58
:103F940000232377710710D56A070ED523686FF0C5
:103FA40004021A61022222779B6913F4407F20469F
:103FB4005CD0FFF7D7FF0023237733070FD52807FB
:103FC4000DD523686FF008021A6104222277DB6999
:103FD4009907204650D0FFF7C5FF00232377F20648
:103FE40010D5EB060ED523686FF010021A61082273
:103FF4002277DB6913F4407F204643D0FFF7B2FFFA
:1040040000232377F00708D5E90706D523686FF066
:1040140001021A612046FFF7A3FF320608D52B06DA
:1040240006D523686FF080021A61204600F03DFA3D
:10403400700608D5690606D523686FF040021A6138
:104044002046FFF791FFB20622D5AB0620D52368A0
:104054006FF0200220461A61BDE8704000F024BAD7
:10406400FFF77FFF2046FFF77EFF91E7FFF779FF19
:104074002046FFF778FF9EE7FFF773FF2046FFF720
:1040840072FFAAE7FFF76DFF2046FFF76CFFB7E763
:1040940070BD0000274A036890420ED0B0F1804FF3
:1040A4000BD0A2F57C42904207D002F58062904288
:1040B40003D002F58062904215D14A6823F0700360
:1040C40013431C4A904219D0B0F1804F16D0A2F588
:1040D4007C42904212D002F5806290420ED002F5EA
:1040E400806290420AD0144A904207D002F580625E
:1040F400904203D002F58062904203D1CA6823F44F
:10410400407313434A6923F08003134303608B68AD
:10411400C3620B688362074B984204BF0B69036355
:10412400012343610369DB0742BF036923F00103F1
:1041340003617047000001400040014010B504468F
:1041440030B390F83D3003F0FF021BB980F83C20F7
:10415400FCF7EAFD0223206884F83D30211DFFF7B7
:1041640099FF012384F84630002084F83E3084F817
:104174003F3084F8403084F8413084F8423084F889
:10418400433084F8443084F8453084F83D3010BD21
:104194000120FCE710B5044630B390F83D3003F03D
:1041A400FF021BB980F83C20FCF70EFE02232068B6
:1041B40084F83D30211DFFF76DFF012384F846305C
:1041C400002084F83E3084F83F3084F8403084F88E
:1041D400413084F8423084F8433084F8443084F821
:1041E400453084F83D3010BD0120FCE7036A026AC3
:1041F40022F01002026270B5446882690D6822F4EC
:10420400E64242EA05228D6823F0200343EA0513BF
:104214000B4DA8420DD1CD6823F0800343EA05136A
:10422400D1E9055624F44064354323F0400344EABD
:104234008504446082614A688263036270BD00BF82
:104244000000014038B590F83C30012B04464FD0B3
:104254000120082A84F83C003AD006D8BAB1042ACE
:1042640026D0002384F83C3038BD0C2AF9D12068CC
:10427400FFF754FEC3690A6943F40063C361C36969
:1042840023F48063C361C36943EA02232EE02068F8
:10429400FFF7F2FD83690A6943F0080383618369C8
:1042A40023F0040383618369134383610020D8E707
:1042B4002068FFF79BFF83690A6943F40063836105
:1042C400836923F480638361836943EA0223ECE70F
:1042D4002068FFF7F9FDC3690A6943F00803C36165
:1042E400C36923F00403C361C3691343C361DDE7F6
:1042F4000220B9E710B584680A4324F47F4442EAF3
:1043040003222243826010BD38B590F83C30012B63
:1043140004464FF0020000F08E8084F83D00012234
:10432400206884F83C20836823F47F4323F07703D8
:1043340083600B68602B4FD032D8402B64D016D8E2
:10434400202B0DD00AD833F0100109D0012384F8B2
:104354003D30002384F83C30104638BD302BF5D175
:10436400826822F07002134343F0070328E0502BC5
:10437400ECD14A68CD68016A036A23F00103036241
:10438400836921F00A0123F0F00343EA05130A4389
:1043940083610262836823F0700343F057030FE0E4
:1043A400B3F5805F0DD0B3F5005F0CD0702BCDD189
:1043B400CB68D1E90121FFF79DFF836843F07703C0
:1043C40083600022C2E7CB68D1E90121FFF792FFA5
:1043D400836843F48043F3E7036A026A4D68C9685B
:1043E40022F010020262826923F0A00322F47042D8
:1043F40043EA051342EA013282610362836823F0CF
:10440400700343F06703DBE74A68CD68016A036A17
:1044140023F001030362836921F00A0123F0F0030E
:1044240043EA05130A4383610262836823F070033D
:1044340043F04703C4E702468EE7000030B590F826
:104444003C30012B02464FF002002AD0136882F858
:104454003D005C680D68986824F070042C435C602F
:10446400104CA34212D0B3F1804F0FD0A4F57C447A
:10447400A3420BD004F58064A34207D004F5806402
:10448400A34203D004F59A34A34204D1496820F02E
:104494008000014399600123002082F83D3082F8B6
:1044A4003C0030BD0000014070477047026802F1D3
:1044B4000C0353E8003F23F490730C3242E80031BC
:1044C40002680029F2D102F1140353E8003F23F0FB
:1044D400010302F1140C4CE800310029F3D1036B01
:1044E400012B0BD102F10C0353E8003F23F010031E
:1044F40002F10C0C4CE800310029F3D1202380F8A0
:1045040042300023036370470268C16838B51369F9
:1045140023F440530B431361054683680069D16853
:10452400034368690343E86921F4164121F00C014F
:1045340003430B43D3605369A96923F440730B43CA
:1045440053611F4B9A4203D003F580639A4224D1EE
:10455400FEF7EAFBEA691921B2F5004FD5E90043F9
:10456400A0FB01011CD1DA184FF0000545EB05034F
:10457400FBF736FE6422B0FBF2F102FB1103DB0011
:104584003233B3FBF2F303F007025B0002EB0112D8
:1045940003F4F8731344A36038BDFEF7B5FBD9E701
:1045A4009A009B0FFBF71CFE6422B0FBF2F102FBA6
:1045B40011031B013233B3FBF2F303EB0113EAE7FC
:1045C4000010014010B5044648B390F8413003F0A0
:1045D400FF021BB980F84020FCF7AAFD22682423BF
:1045E40084F84130D36823F40053D3602046FFF7A6
:1045F4008BFF23681A6922F490421A615A6922F0E7
:104604002A025A61DA6842F40052DA600020202358
:10461400606484F8413084F84230606310BD012046
:10462400FCE770477047704708B5806B0023C3856B
:10463400C384FFF7F8FF08BD704790F84230222B7F
:1046440007B542D181680268836AB1F5805F3FD1C2
:10465400016900293FD15268C2F3080223F8022BF2
:104664008362C38D013B9BB2C385002B2DD10268AD
:10467400D16821F02001D160D16821F48071D1602A
:10468400516921F001015161202280F842204363E5
:10469400026B012A026828D1036302F10C0353E878
:1046A400003F23F0100302F10C0C4CE80031002908
:1046B400F3D11368DB0605D50191136801935368A0
:1046C4000193019B818DFFF7B7FF03B05DF804FBF5
:1046D40039B9016929B95268D2B21A70836A0133AF
:1046E400BEE7526802F07F02F7E7FFF79BFFECE7B3
:1046F40003681A6873B51607D9685D69044608D15A
:10470400960668D58D0666D502B0BDE87040FFF701
:1047140094BF05F0010001F4907505435BD0D60702
:1047240005D5CD0542BF636C43F0010363645307B1
:1047340004D518B1636C43F002036364960704D58F
:1047440018B1636C43F004036364150707D501F0E3
:10475400200303431EBF636C43F008036364636C6C
:10476400002B32D0920604D58B0602D52046FFF7E3
:1047740064FF26687369626C03F0400302F0080268
:1047840053EA0205204622D0FFF790FE73695E06C5
:1047940018D5226802F1140353E8003F23F04003C4
:1047A400143242E800310029F3D1E06B50B1744B6C
:1047B4000365FDF764F840B1E06B036D02B0BDE83A
:1047C400704018472046FFF72EFF02B070BDFFF778
:1047D4002AFF6564F9E7206B012840F09580D5062F
:1047E40040F19280C80640F18F80002201921A683D
:1047F40001925A680192019A5A6952064ED5E16BA8
:104804000A68526892B2002ADFD0A08D9042DCD9A7
:10481400E285CA69B2F5807F36D003F10C0252E812
:10482400002F22F4807203F10C0040E800210029DB
:10483400F3D103F1140252E8002F22F0010203F134
:10484400140040E800210029F3D103F1140252E8D6
:10485400002F22F0400203F1140040E80021002957
:10486400F3D1202284F84220216303F10C0252E8A0
:10487400002F22F0100203F10C0040E8002100296F
:10488400F3D1E06BFCF7BDFF02236363E38DA18DDD
:10489400C91A89B22046FFF7CFFE96E7E28DE08D74
:1048A400A18D80B292B200288FD0891A89B20029D2
:1048B4008BD003F10C0252E8002F22F4907203F122
:1048C4000C0545E800200028F3D103F1140252E856
:1048D400002F22F0010203F1140545E8002000280E
:1048E400F3D1202284F84220206303F10C0252E821
:1048F400002F22F0100203F10C0545E800200028E7
:10490400F3D102236363C5E7160628D50D0626D521
:1049140094F84120212A7FF458AFA168226AB1F5A6
:10492400805F17D12169A9B932F8021BC1F30801CC
:1049340059602262E28C013A92B2E284002A7FF446
:1049440044AFDA6822F08002DA60DA6842F04002AA
:10495400DA603AE7511C216212785A60EAE750069D
:104964007FF533AF4A067FF530AFDA6822F04002B4
:10497400DA60202384F841302046FFF752FE24E712
:104984002D46000884B010B503AC84E80E000B4635
:10499400049942680B4305990B4306990B43079905
:1049A4000B430899BDE8104022F4FD420B4322F06A
:1049B4007F021343436004B000207047D0F88000A6
:1049C40070470B68C0F880300020704703230360F1
:1049D40000207047006800F0030070470B6810B5B2
:1049E4008360D1E90134C2682343CC680969234355
:1049F40022F47F620B4322F00F021343C3600020B2
:104A040010BD1430405870470B6810B543624B68B2
:104A14008362D1E9023423430C69C26A496923439E
:104A24000B4322F0F7021343C362002010BD0000C1
:104A340010B5002386B0CDE90133CDE9033301A9D4
:104A44004FF4806305930446FFF7C8FF0A4B4FF405
:104A5400FA521B68B3FBF2F341F288325343013B31
:104A640007D3626B1206FAD5C523A363002006B0F0
:104A740010BD4FF00040FAE7000000200346444810
:104A840010B500684FF4FA54B0FBF4F04243002A26
:104A940049D0586B10F0450F07D0000505D45A6B68
:104AA400540704D50420986310BD013AEFE75A6B0C
:104AB400D00703D501229A630120F5E7C5229A6342
:104AC4001A69D2B29142F7D15B6932481840002882
:104AD400EAD0002B2ADB5A002BD49C002BD4D9001B
:104AE4002BD41A012CD45C012DD4D9012ED41A0252
:104AF4002FD45C0230D4990231D4DA0232D45C036C
:104B040033D4990334D4DA0335D41C0436D4590489
:104B140037D49A0438D413F0080F0CBF4FF4803004
:104B24004FF40000C0E74FF00040BDE74FF00070C5
:104B3400BAE74020B8E78020B6E74FF48070B3E7C7
:104B44004FF40070B0E74FF48060ADE74FF40060BD
:104B5400AAE74FF48050A7E74FF40050A4E74FF4BE
:104B64008040A1E74FF400409EE74FF400309BE7FC
:104B74004FF4802098E74FF4002095E74FF480101D
:104B840092E74FF400108FE74FF480008CE700BFEA
:104B94000000002008E0FFFD30B587B01025402359
:104BA400CDE90253019100224FF4806301A9CDE9BC
:104BB40004230446FFF712FF41F2883229462046B7
:104BC40007B0BDE83040FFF759BF30B587B01125B5
:104BD4004023CDE90253019100224FF4806301A9DF
:104BE400CDE904230446FFF7F9FE41F28832294651
:104BF400204607B0BDE83040FFF740BF30B587B06E
:104C040012254023CDE90253019100224FF4806321
:104C140001A9CDE904230446FFF7E0FE41F28832FE
:104C24002946204607B0BDE83040FFF727BF30B51E
:104C340087B018254023CDE90253019100224FF497
:104C4400806301A9CDE904230446FFF7C7FE41F2BE
:104C540088322946204607B0BDE83040FFF70EBF32
:104C640030B587B019254023CDE9025301910022C4
:104C74004FF4806301A9CDE904230446FFF7AEFE97
:104C840041F288322946204607B0BDE83040FFF79C
:104C9400F5BE000030B5002387B00C254022CDE9D5
:104CA4000323CDE9013501A94FF48063044605933C
:104CB400FFF794FE034A2946204607B0BDE830407A
:104CC400FFF7DCBE00E1F50530B587B007254023CA
:104CD400CDE9025301924FF48063002201A9CDE98A
:104CE40004230446FFF77AFE41F28832294620461F
:104CF40007B0BDE83040FFF7C1BE30B587B03725F7
:104D04004023CDE90253019100224FF4806301A9AD
:104D1400CDE904230446FFF761FE41F288322946B7
:104D2400204607B0BDE83040FFF7A8BE30B587B0D5
:104D340006254023CDE90253019100224FF48063FC
:104D440001A9CDE904230446FFF748FE41F2883265
:104D54002946204607B0BDE83040FFF78FBE30B586
:104D6400002387B033254022CDE90323CDE9013563
:104D740001A94FF4806304460593FFF72FFE41F227
:104D840088322946204607B0BDE83040FFF776BE9A
:104D940030B587B00D254023CDE90253019100229F
:104DA4004FF4806301A9CDE904230446FFF716FEFE
:104DB40041F288322946204607B0BDE83040FFF76B
:104DC4005DBE0000114B4FF4FA511B68B3FBF1F3C5
:104DD40041F2883102464B43013B13D3516B11F02E
:104DE400450FF9D00905F7D4536B5B0702D50420AE
:104DF40090637047506B10F0010014BF0123C5236A
:104E0400936370474FF00040704700BF00000020DC
:104E140010B5002386B00222CDE90132C022CDE9CB
:104E2400032301A94FF4806304460593FFF7D6FDDD
:104E3400204606B0BDE81040FFF7C4BF10B586B0E9
:104E44000922C023CDE9022301914FF4806300219C
:104E5400CDE9041301A90446FFF7C0FD204606B0BE
:104E6400BDE81040FFF7AEBF0E4B4FF4FA511B687C
:104E7400B3FBF1F341F2883102464B43013B0ED3BD
:104E8400516B11F0450FF9D00905F7D4506B10F0B0
:104E9400040015BF0420C5239063936370474FF04B
:104EA400004070470000002010B541F0004186B07A
:104EB400292241F480114023CDE9022301914FF4CA
:104EC40080630021CDE9041301A90446FFF786FDA0
:104ED400204606B0BDE81040FFF7C6BF03461E4893
:104EE40010B500684FF4FA54B0FBF4F041F2883482
:104EF4006043013829D35C6B14F0450FF9D02405C5
:104F0400F7D4586B440702D50420986310BD586B3E
:104F1400C00703D501229A630120F7E71869C0B2DC
:104F24008142F9D1C52199635B6913F4604002D1D0
:104F34001B0C1380EAE75A040AD413F4004F0CBF85
:104F44004FF480304FF48050E0E74FF00040DDE74D
:104F54004FF40050DAE700BF0000002070B50023D2
:104F640086B003264022CDE90323CDE901360D4660
:104F74004FF4806301A904460593FFF72FFD2A46E9
:104F84003146204606B0BDE87040FFF7A7BF0000D9
:104F9400134B4FF4FA511B68B3FBF1F341F2883120
:104FA40002464B43013B17D3516B11F0450FF9D027
:104FB4000805F7D4536B590702D504209063704752
:104FC400506B10F0010002D0012393637047536BC0
:104FD4005B0603D54023F8E74FF00040704700BF5D
:104FE4000000002010B54FF4D57286B00823CDE937
:104FF400012340210023CDE903134FF4806301A969
:1050040004460593FFF7EAFC204606B0BDE81040CD
:10501400FFF7BEBF82B0002302460193019B013318
:105024000193019BB3F1706F15D81369002BF5DA66
:1050340000230193136943F001031361019B0133BE
:105044000193019BB3F1706F05D8106910F0010052
:10505400F4D102B070470320FBE784B038B505AD46
:1050640085E80E009DF81930012B044627D1836B87
:1050740023F480338363C36823F4840323F040035D
:10508400C360C36823F44013C3609DF82030012B30
:1050940002BFC36843F48013C360FFF7BBFF9DF8EE
:1050A4001630012B07D1A36843F00603A360A3685D
:1050B40043F02003A360BDE8384004B07047C368E0
:1050C40043F04003C360FFF7A5FF9DF81D3023B9EB
:1050D400A36B43F48033A363E1E7A36B23F480332E
:1050E400F9E70000022A4AD1274B284A0B4493428D
:1050F40039D9274B274A0B44934236D9264AA1F57E
:105104007403A3F51053934231D9244AA1F1837354
:10511400A3F5E74393422CD3214B224A0B449342F9
:1051240029D9214B214A0B44934226D3204B214AAF
:105134000B44934223D3204AA1F1B773A3F55853E8
:1051440093421ED31D4B1E4A0B4493422CBF06238D
:105154000723C26822F47052C260C26842EA832301
:10516400C360002070470F23F3E70E23F1E70D23FC
:10517400EFE70C23EDE70B23EBE70A23E9E7092329
:10518400E7E70823E5E700BF405327FFFF340C009F
:10519400401E1BFF3F420F007F4F120020D613001A
:1051A40060B6E5FE5FE3160000D3CEFE40771B0039
:1051B400C05BB3FEC091210020753800E05459FE55
:1051C400E09C4100836843F0010383600020704742
:1051D400836823F0010383600020704738B5C368F7
:1051E400012923F0C04305460C46C36014D1C368AB
:1051F40043F00053C36000240A20FCF785F86B6970
:10520400D90704F10A0402D4C82CF5D1C824A4F1A6
:10521400C8035842584138BD71B9C36843F080434C
:10522400C3600A20FCF770F86B69DA0704F10A041A
:10523400EDD5C82CF5D1E9E70120ECE782B00023D5
:1052440002460193019B01330193019BB3F1706FFB
:1052540015D81369002BF5DA8901002341F02001E8
:1052640001931161019B01330193019BB3F1706FB1
:1052740005D8106910F02000F4D102B07047032063
:10528400FBE782B0002302460193019B01330193A3
:10529400019BB3F1706F13D81369002BF5DA002367
:1052A400019310231361019B01330193019BB3F11B
:1052B400706F05D8106910F01000F4D102B0704777
:1052C4000320FBE7D0F800381943C0F80018002089
:1052D4007047000084B02DE9F843044609A880E82B
:1052E4000E0000239DF824609DF82E50194603F10A
:1052F400400204EB820201330F2B5160F7D104F515
:105304000067002D6CD17B6843F002037B60A36BC4
:1053140043F40013A363A36B23F40023A363A36BDD
:1053240023F48023A3630023C4F8003E9DF82930AE
:10533400012B5FD19DF82710002959D12046FFF792
:10534400C1FF10212046FFF779FF01462046FFF7F1
:1053540098FF0843C0B2002300383B6118BF012006
:105364007B6104F51062FB6119464FF0904C4FF0DD
:10537400006E4FF67F389E423ED8002204F530631B
:1053840011464FF0904C4FF0006E4FF67F38964226
:1053940045D83B6923F480733B610023A3616FF01C
:1053A400804363619DF826301BB9A36943F0100361
:1053B400A361A269234B1343A3619DF82A301BB157
:1053C400A36943F00803A361012D01BFA36943F05E
:1053D400804343F00403A361BDE8F84304B070477D
:1053E400A36B23F40013A363A36B43F4002399E793
:1053F4001946A3E70321A1E7D2F80090B9F1000F01
:105404000BDA3BB9C2F800E011610133C2F808803D
:105414002032B0E7C2F800C0F6E71160F4E7D3F831
:105424000090B9F1000F0BDA3AB9C3F800E0196142
:105434000132C3F808802033A9E7C3F800C0F6E7B7
:105444001960F4E700383C80D0F8083813F00600FF
:1054540004D013F0020F14BF02200F20704730B5A0
:105464000C78012204F00F05AA404D78012D00F5B7
:10547400006300EB441019D1DD692A43DA61D0F8E6
:1054840000391A0410D48A68D0F80059C2F30A0308
:105494000A792B4343EA824343EA845343F080531B
:1054A40043F40043C0F80039002030BDDC6944EA0D
:1054B4000242DA61D0F8003B1B04F5D48B68D0F8C3
:1054C400002BC3F30A0313430A7943EA824343F0EC
:1054D400805343F40043C0F8003BE5E710B50A7875
:1054E4004978012900EB421300F5006002F00F0235
:1054F40022D1D3F8001900290BDAD3F8001941F0AE
:105504000061C3F80019D3F8001941F08041C3F8D1
:105514000019C46B012101FA02F224EA0204C463F3
:10552400C16921EA0202C261D3F80019144A0A408F
:10553400C3F80029002010BDD3F8001B00290BDAA2
:10554400D3F8001B41F00061C3F8001BD3F8001B23
:1055540041F08041C3F8001BC46B4FF4803101FA61
:1055640002F224EA0204C463C16921EA0202C261AC
:10557400D3F8001B034A0A40C3F8002BDAE700BF44
:10558400007833EC0078F3EF82B000234A7801937B
:105594000B78012A4FEA43131ED100F51060C1189D
:1055A400C258002A02DB002002B07047C25842F001
:1055B4000062C250C25842F08042C25042F210729D
:1055C400019B01330193019B934201D90120EBE735
:1055D4000B68002BF4DBE6E700F53060C118C25815
:1055E400002AE0DAC25842F00062C250C25842F0C7
:1055F4008042C25042F21072019B01330193019B1D
:105604009342E3D80B68002BF6DBCCE710B59DF88A
:10561400084044B9033301329B0800EB023001EB2C
:1056240083038B4201D1002010BD51F8042B02608A
:10563400F7E70000F7B54B780C69DFF8B8C1DFF87D
:10564400B8E117460A78012B00EB421540F082803E
:1056540005F51066336944BB03EA0C03336133690F
:1056640043F400233361336903EA0E033361012FEA
:105674000C7947D1CB6903B17361012C0CD1D0F8FB
:10568400083813F4807FD5F800390CBF43F0005379
:1056940043F08053C5F80039D5F8003943F004438A
:1056A400C5F80039002003B0F0BD03EA0E033361EE
:1056B400336903EA0C0333618B68BAB9A34238BF78
:1056C4000B61336943F4002333610B693469C3F319
:1056D4001203234333610B79012BC8D1336923F0BF
:1056E400C0433361336943F00053BFE71C44013CBA
:1056F400B4FBF3F43E4BD6F810C003EAC44343EAC8
:105704000C03E1E7D5F80039012C43F00443C5F854
:1057140000390B690BD0002BC4D0D0F8341802F038
:105724000F02012393400B43C0F83438BAE7D0F892
:10573400084814F4807FD5F800490CBF44F00054A5
:1057440044F08054C5F800490097C9689BB2FFF73C
:105754005DFFA7E7D5F8103B03EA0E03C5F8103B3D
:10576400D5F8103B03EA0C0305F5306633618B680A
:105774003ABB04B10B610B623269C3F312031343E6
:105784003361336943F40023012F336102D1CB68C1
:1057940003B173610B79012B0CD1D0F8083813F4E1
:1057A400807FD5F8003B0CBF43F0005343F0805397
:1057B400C5F8003BD5F8003B43F00443C5F8003B73
:1057C40070E7002CD8D01C44094AD6F810C0013C1C
:1057D400B4FBF3F4A4B202EAC442634342EA0C0207
:1057E4000B6232613269C3F312031343CCE700BF87
:1057F4000000F81FFFFF07E00000F8FF034670B544
:105804000020940803F5805502F00302A04210D34F
:1058140001EB840062B103F580531C680023D900B6
:1058240024FA01F1C154013399B28A42F7D11044E8
:1058340070BD2E6841F820600130E7E74A780B78A4
:10584400012A00EB431012D1D0F80029002A06DB0C
:105854002BB1D0F8003923F08043C0F80039D0F8D8
:10586400003943F40013C0F8003900207047D0F821
:10587400002B002A06DB2BB1D0F8003B23F0804339
:10588400C0F8003BD0F8003B43F40013C0F8003BE1
:10589400EBE70B784A7800EB43100B79012AA3F16C
:1058A4000203DBB20FD1D0F80029012B22F400123D
:1058B400C0F8002905D8D0F8003943F08053C0F867
:1058C400003900207047D0F8002B22F40012012B7D
:1058D400C0F8002B9EBFD0F8003B43F08053C0F8C3
:1058E400003BEEE7D0F8003823F4FE63C0F800383C
:1058F400D0F80038090101F4FE611943C0F800181A
:1059040000207047D0F8003E23F00303C0F8003EA7
:10591400D0F8043823F00203C0F80438002070479C
:10592400D0F8003E23F00303C0F8003ED0F804385A
:1059340043F00203C0F804380020704742698069CC
:1059440010407047D0F8183800F50060C06918405E
:10595400000C7047D0F8183800F50060C069184092
:1059640080B2704700EB411100F50060D1F8082BBC
:10597400406910407047D0F81028D0F8343800EB54
:10598400411001F00F01CB4000F51060DB0180688D
:10599400DBB2134318407047406900F001007047C0
:1059A400D0F8003923F4FF6323F00703C0F800396B
:1059B400D0F8043843F48073C0F8043800207047EA
:1059C40030B5056C104CA54200F5306303D9D0F80E
:1059D400004B002C16DB00241C611C6944F40024D9
:1059E4001C611C6944F018041C611C69012944F001
:1059F400C0441C6101BF5A61D0F8003B43F08023CE
:105A0400C0F8003B002030BD0A30544F08B50349AC
:105A1400034800F093FF034B187008BD24050020D1
:105A2400D46D00082805002008B513460A4601462F
:105A34000348FDF715FC003818BF012008BD00BF5E
:105A44009402002008B513460A4601460348FDF7B0
:105A540099FC003818BF012008BD00BF9402002043
:105A640008B50348FDF7B0FF043818BF012008BD8E
:105A74009402002001460148FDF709BF940200206A
:105A8400704708B5FFF7FCFF08BD08B500F004F93E
:105A940008BD08B500F006F908BD07B501238DF867
:105AA400073000F01FF808B98DF807009DF80700CB
:105AB40003B05DF804FB000008B5FFF7EEFF012812
:105AC4000CD10748FDF7C8FE38B905484FF400610A
